:020000040800F2
:1000000020130020C5170008CD170008CF170008DF
:10001000D1170008D3170008D5170008000000000A
:10002000000000000000000000000000A102000825
:10003000D91700080000000041030008A5030008CC
:10004000DF170008DF170008DF170008DF170008B8
:10005000DF170008DF170008DF170008DF170008A8
:10006000DF170008DF170008DF170008DF17000898
:10007000DF170008DF170008DF170008DF17000888
:10008000DF170008DF170008DF170008DF17000878
:10009000DF170008DF170008DF170008DF17000868
:1000A000DF170008DF170008DF170008DF17000858
:1000B000DF1700081D040008DF170008DF1700081D
:1000C000DF170008DF170008DF170008DF17000838
:1000D000DF170008DF170008DF170008DF17000828
:1000E000DF170008DF170008DF170008DF17000818
:1000F000DF170008DF170008DF170008DF17000808
:10010000DF170008DF170008DF170008DF170008F7
:10011000DF170008DF170008DF170008DF170008E7
:10012000DF170008DF170008DF170008DF170008D7
:10013000DF170008DF170008DF170008DF170008C7
:10014000DF170008DF170008DF170008DF170008B7
:10015000DF170008DF170008DF170008DF170008A7
:10016000DF170008DF170008DF170008DF17000897
:10017000DF170008DF170008DF1700080000000085
:10018000DF170008DF17000800F002F800F042F85F
:100190000AA090E8000C82448344AAF10107DA45E2
:1001A00001D100F037F8AFF2090EBAE80F0013F0F2
:1001B000010F18BFFB1A43F001031847482B00003A
:1001C000682B0000103A24BF78C878C1FAD85207CB
:1001D00024BF30C830C144BF04680C6070470000C1
:1001E0000023002400250026103A28BF78C1FBD840
:1001F000520728BF30C148BF0B6070471FB502F0DF
:100200004BFD1FBD10B510BD03B4FFF7FBFF03BCD2
:1002100001F0E0FB01F0B0FB1146FFF7EFFF01F04A
:1002200089FC0448002101F0EFFC01F095FC01F08D
:10023000C8FB00002800002080F309887047EFF316
:1002400009807047684680F3098804480078C00731
:1002500014BF0220032080F314887047C42C0008C8
:10026000DFF818C0EFF305831B0618BF6047EFF3F4
:100270001483DB0708BF604700DF7047B31C00082A
:10028000DFF818C0EFF305831B0618BF6047EFF3D4
:100290001483DB0708BF604700DF7047951E000826
:1002A000EFF30980816911F8021C99BB90E80F10E7
:1002B00010B5E047BDE81040EFF3098C8CE807006B
:1002C0001C4B93E80600914208BF704781B11EF0B5
:1002D000100F06BF2CED108A0120002081F82500A8
:1002E0002CE9F00FC1F828C00CB402F057F90CBC8F
:1002F0001A60D2F828C0BCE8F00F92F82500002858
:100300001ABFBCEC108A6FF0120E6FF0020E8CF365
:100310000988704710B5084A1268914209D8074CFD
:1003200054F8214090E80F10A047EFF3098C8CE8B7
:100330000F0010BD60000020E4190008E419000857
:1003400010B501F0F1FFBDE81040154B93E8060031
:10035000914208BF7047EFF3098C1EF0100F06BFE3
:100360002CED108A0120002081F825002CE9F00FE7
:10037000C1F828C00CB402F011F90CBC1A60D2F814
:1003800028C0BCE8F00F92F8250000281ABFBCEC8A
:10039000108A6FF0120E6FF0020E8CF3098870470E
:1003A0006000002010B502F0C1F9CCE710B501F0F3
:1003B0007FFC02F0BBF9C6E7144C64264FF47A7553
:1003C0002670284601F0AAFBFAE701F0B3FB0121F1
:1003D000082000F0EBFB0E484FF470410222016050
:1003E00001210171002181714271C17101460948E9
:1003F00000F0CCF900F0A0F80021074801F004FC5F
:100400000349091F086001F0A7FBFEE71000002068
:1004100004000020000C0240A42C00082DE9F0414B
:10042000714C0121204601F0C4F8002831D001218F
:10043000204601F0CAF86D4C6D4D6E4E20784FF499
:1004400000474FF48068092823D2DFE800F0220536
:100450000E242F38455263000821284600F010FA78
:100460003946284600F00EFA1DE00821284600F023
:1004700007FA3946284600F003FA41464FEA0500DC
:1004800000F000FA0821304600F0FCF92078401C0A
:100490002070BDE8F0810821284600F0F3F93946C4
:1004A000284600F0EDF941463046E9E708212846A4
:1004B00000F0E8F93946284600F0E2F907E00821A3
:1004C000284600F0DFF93946284600F0DBF94146BE
:1004D000304600F0D5F9D5E70821284600F0D2F9DA
:1004E0003946284600F0CEF94146304600F0C8F9BA
:1004F0000BE00821284600F0C5F93946284600F0EF
:10050000C1F94146304600F0BDF90821304600F0FF
:10051000B7F9BBE70821284600F0B2F9394628466A
:1005200000F0B0F94146304600F0ACF90821304601
:1005300000F0A6F90120ABE7FEB50121022000F092
:1005400053FB0121032000F031FB01248DF804400E
:10055000032648F208008DF80560002500908DF80C
:1005600006508DF807406946214800F00FF98DF8D4
:1005700004408DF8056040F20C401E4E00908DF84E
:1005800006508DF807406946304600F0FFF81A48DB
:100590001A4942F210720068134FB0FBF1F0134990
:1005A000401E488016494A6008800D814D803846BB
:1005B00000F062FC1D208DF808008DF809508DF8C0
:1005C0000A408DF80B4002A800F021F801221146E4
:1005D000384600F0DAFF0121384600F0C5FC04215E
:1005E000304600F04FF9FEBD000400400C00002032
:1005F000000002400004024044000020007E560338
:10060000800000202849084328490860704730B519
:100610000F22C47801780123FCB1244C246801F135
:10062000E02104F4E064C4F5E064C4F30724C4F1F9
:100630000405E2404478AC408578154025432A0102
:1006400081F80024007800F01F018B4040098000F1
:1006500000F1E020C0F8003130BD01F01F00834000
:100660004809800000F1E020C0F8803130BD104A18
:10067000114001430D48001F016070470B4A121DD5
:100680000029116801D0014300E0814311607047E7
:100690004FF0E0210428086903D020F0040008612D
:1006A000704740F00400FAE70000FA050CED00E0A6
:1006B00080FFFF1F824910B5884206D101210846FC
:1006C00000F0A6FA002101205BE07E49884206D1B5
:1006D0000121022000F09CFA0021022051E07A4919
:1006E000884206D10121042000F092FA0021042062
:1006F00047E07649884206D10121082000F088FAB7
:10070000002108203DE07249884206D101211020D5
:1007100000F07EFA0021102033E06E49884206D1B5
:100720000121202000F074FA0021202029E06A49EC
:10073000884206D10121402000F06AFA00214020C1
:100740001FE06649884206D10121802000F060FA4E
:100750000021802015E06249884202D101218415E0
:100760000AE06049884202D10121441504E05E4953
:1007700088420AD101210415204600F049FA0021DF
:100780002046BDE8104000F043BA10BDF0B500238C
:10079000012403270D6804FA03F21540954242D163
:1007A000D0F800C05E0007FA06F52CEA050CC0F888
:1007B00000C091F804C0D0F800E00CFA06FC4CEA46
:1007C0000E0CC0F800C091F804C0BCF1010F02D0BB
:1007D000BCF1020F1FD1D0F808C02CEA050CC0F8FC
:1007E00008C091F805C0D0F808E00CFA06FC4CEA05
:1007F0000E0CC0F808C0D0F804C02CEA020CC0F8F7
:1008000004C0426891F806C00CFA03FC1FFA8CFC85
:1008100042EA0C024260C268AA43C260CA79C56853
:10082000B2402A43C2605B1C102BB3D3F0BD4FF61D
:10083000FF7101600021017141718171C1717047C7
:1008400008B541F480320092C261C1610099C16172
:10085000C169C069009008BD0246002012690A42C1
:1008600000D001207047006980B270470246002026
:1008700052690A4200D001207047406980B2704737
:1008800001837047418370470AB1018370474183F8
:1008900070474161704742694A40426170474B0767
:1008A000DB0E9A40C90810B500EB8100016A0F24E5
:1008B0009C40A1430162016A1143016210BD000026
:1008C000000002400004024000080240000C024008
:1008D000001002400014024000180240001C0240B8
:1008E000002002400024024000280240F94801682C
:1008F00041F001010160F74A0021083211600268ED
:10090000F54B1A400260031DF44A1A60F14BF44A99
:1009100084331A60F14A103A1B1D1A60026822F4EF
:1009200080220260EB480C300160181D01607047A6
:10093000E8490022891C0A700870704702460020AE
:10094000510901290CD002290CD0E24974310968FF
:1009500002F01F02012393400B4200D00120704798
:10096000DC49F4E7DB497031F1E718B500204FF4BA
:10097000A04400903120FFF7E1FF0099491C00914D
:10098000A14201D00028F5D03120FFF7D7FF002881
:1009900000D0012018BDCF490A6822F0F80242EACF
:1009A000C00008607047CF4908607047C9490022FD
:1009B00070310A700A70012802D0042801D1052084
:1009C00008707047C8490860704741EA82115A08A8
:1009D00010B5C64B029C03EB02421143014341EAAE
:1009E0000460BC49091D086010BDBE490866704717
:1009F000800140EA0170B749843108607047B94905
:100A000088667047800140EA0160B24940EA02709E
:100A1000883108607047B34908677047B149C864B6
:100A20007047AC4A08321368084323F0EC6318435C
:100A300010607047A74A08321368084323F07843D0
:100A4000184310607047A34A0832116821F003016F
:100A50000143116070479F480830006800F00C00A7
:100A600070479C4A0832116821F0F001014311607F
:100A70007047984A0832116821F4E051014311602F
:100A80007047944908310A6822F4604242EAC00083
:100A9000086070478F4A30B508321168944B11F0E6
:100AA0000C0103D0042901D0082901D0036013E010
:100AB0008849091D0C680C6804F03F04B3FBF4F38B
:100AC0000C680968C4F388146343C1F30141491CED
:100AD0004900B3FBF1F1016011680F2303EA111122
:100AE000844B5C5C0168E14041601468072505EABD
:100AF00094241C5D21FA04F48460126805EA5232E1
:100B00009A5CD140C16030BDC0F30121032908D1F6
:100B1000704A0832116821F4F813774901401943EB
:100B200011606C4970310A68C0F30B0002430A601F
:100B300070476D494439086070476B494039086017
:100B400070476849C1F85C017047624A8C3211688D
:100B5000401E21F01F010143116070475D498C3137
:100B60000A686FF0FF0322F4F85203EB00201043F1
:100B700008607047574A8C32116821F440110143D4
:100B800011607047534A8C32116821F440010143CF
:100B9000116070474F4A8C32116821F44031014393
:100BA000116070475549C1F8E0017047494A303239
:100BB0000029116801D0014300E0814311607047B2
:100BC000444A34320029116801D0014300E08143D6
:100BD000116070473F4A38320029116801D0014343
:100BE00000E08143116070473A4A403200291168A1
:100BF00001D0014300E0814311607047354A44321F
:100C00000029116801D0014300E081431160704761
:100C1000304A10320029116801D0014300E08143BD
:100C2000116070472B4A14320029116801D001432A
:100C300000E0814311607047264A1832002911688C
:100C400001D0014300E0814311607047214A203206
:100C50000029116801D0014300E081431160704711
:100C60001C4A24320029116801D0014300E081436D
:100C700011607047174A50320029116801D00143B2
:100C800000E0814311607047124A54320029116814
:100C900001D0014300E08143116070470D4A583292
:100CA0000029116801D0014300E0814311607047C1
:100CB000084A60320029116801D0014300E08143F5
:100CC00011607047034A64320029116818D001434B
:100CD00017E0000000380240FFFFF6EA1030002461
:100CE0000030002000004742800E47420000FFFF16
:100CF0000024F40011000020FFFCFF0F0010474209
:100D000081431160704714490128086803D020F01E
:100D100008000860704740F00800FAE70E4A633A9E
:100D20000029117801D0014300E081431170704720
:100D30000948001D016841F080710160704701465B
:100D4000054A0020643A12680A4200D00120704728
:100D5000014962390870704770380240FE4910B589
:100D6000884206D101210846FFF77AFF00210120C1
:100D70005BE0B0F1804F09D0F84988420DD10121E4
:100D80000220FFF763FF0021022070E001210846E6
:100D9000FFF75CFF0021012069E0F149884206D19C
:100DA00001210420FFF752FF002104205FE0ED49FC
:100DB000884206D101210820FFF748FF00210820C2
:100DC00055E0E949884206D101211020FFF73EFF96
:100DD000002110204BE0E549884206D10121202066
:100DE000FFF734FF0021202041E0E149884206D18D
:100DF00001210220FFF734FF0021022015E0DD4928
:100E0000884202D101210C040AE0DB49884202D168
:100E100001214C0404E0D94988420AD101218C0403
:100E20002046FFF71DFF00212046BDE81040FFF7D8
:100E300017BFD349884206D101214020FFF706FFA2
:100E40000021402013E0CF49884206D101218020B3
:100E5000FFF7FCFE0021802009E0CB4988420AD13F
:100E6000841501212046FFF7F1FE00212046BDE850
:100E70001040FFF7EBBE10BD30B50288B64BBC4C3E
:100E800098420DD0A0420BD0B0F1804F08D0B34DA6
:100E9000A84205D0B24DA84202D0B24DA84203D11B
:100EA00022F070054A882A43AF4DA84206D0AF4DC4
:100EB000A84203D022F440750A892A4302804A6876
:100EC000C2620A880285984201D0A04201D1897A83
:100ED00001860121818230BD4FF0FF314160002148
:100EE0000180018141808172704701858282704753
:100EF000028822F070020A43028070474162704704
:100F0000C1627047406A7047008D704700290188B0
:100F100002D041F0020101E021F00201018070479E
:100F20000029018802D041F0040101E021F0040110
:100F3000018070470029018802D041F0800101E062
:100F400021F0800101807047028822F008020280AF
:100F500002880A4302807047028822F440720280AD
:100F600002880A43028070470029018802D041F0BC
:100F7000010101E021F001010180704730B5028CD0
:100F800022F001020284028C8388048B22F0020288
:100F900024F073050C882C438D8915434A882A4315
:100FA0006D4DA84202D0724DA8420DD122F0080525
:100FB000CA8923F440732A4322F004058A882A430D
:100FC0000D8A1D434B8A2B438380048389684163C8
:100FD000028430BD70B5028C22F010020284028CB3
:100FE0008488038B0D8823F4E6464FF6FF7303EAEB
:100FF000052535438E8922F0200203EA06161643A2
:101000004A8803EA02123243534EB04202D0584E8D
:10101000B04215D122F08006CA8924F4406403EA64
:101020000212324322F040068A8803EA0212324357
:101030000E8A03EA860626434C8A03EA8404344374
:101040008480058389688163028470BD70B5028CD9
:1010500022F480720284028C8488838B0D8823F0B2
:1010600073031D4322F400738E894FF6FF7202EA68
:1010700006261E434B8802EA03233343364EB04212
:1010800002D03B4EB04215D123F40066CB8924F444
:10109000405402EA0323334323F480668B8802EA38
:1010A000032333430E8A02EA061626434C8A02EAD9
:1010B00004143443848085838968C163038470BDCC
:1010C00070B5028C22F480520284048C8288838B57
:1010D0000D8823F4E6464FF6FF7303EA05253543F2
:1010E00024F400568C8903EA043434434E8803EA1E
:1010F00006362643184CA04202D01D4CA04205D112
:1011000022F480440A8A03EA821222438280858381
:1011100089680164068470BD00210180418081805E
:1011200081608181C18101824182704730B5012493
:10113000058C00F118038C40A543058431B30829C0
:101140002CD0091FC1F34E001844016848F6FF7304
:101150001940016001681AE00000014000040040ED
:1011600000080040000C0040001000400014004047
:10117000000401400040014000440140004801409B
:1011800000180040001C00400020004006E04FF620
:10119000FF7303EA02221143016030BD03EB5100EB
:1011A00001684FF68F73194001600168F3E74163EE
:1011B000704781637047C163704701647047028B59
:1011C00022F070020A4302837047028B4FF6FF73CE
:1011D00022F4E04203EA0121114301837047828B2C
:1011E00022F070020A4382837047828B4FF6FF73AE
:1011F00022F4E04203EA0121114381837047028B0C
:1012000022F008020A4302837047028B4FF6FF73F5
:1012100022F4006203EA0121114301837047828BAB
:1012200022F008020A4382837047828B4FF6FF73D5
:1012300022F4006203EA0121114381837047028B8B
:1012400022F004020A4302837047028B4FF6FF73B9
:1012500022F4806203EA0121114301837047828BEB
:1012600022F004020A4382837047828B4FF6FF7399
:1012700022F4806203EA0121114381837047028BCB
:1012800022F080020A4302837047028B4FF6FF73FD
:10129000C2F30E0203EA0121114301837047828BDE
:1012A00022F080020A4382837047828B4FF6FF73DD
:1012B000C2F30E0203EA0121114381837047028CBD
:1012C00022F002020A4302847047028C22F00802D4
:1012D0000A4302847047028C4FF6FF7322F020020B
:1012E00003EA0111114301847047028C4FF6FF732A
:1012F00022F0800203EA0111114301847047028C3D
:101300004FF6FF7322F4007203EA012111430184B6
:101310007047028C4FF6FF7322F4006203EA01214A
:10132000114301847047028C4FF6FF7322F4005280
:1013300003EA013111430184704710B50123048C85
:101340008B409C430484038C8A401343038410BD68
:1013500010B50423048C8B409C430484038C8A4086
:101360001343038410BD828B22F440628283828BFC
:101370004FF6FF7303EA01210A4382837047828B91
:1013800022F00C028283828B0A4382837047028B95
:1013900022F440620283028B4FF6FF7303EA0121BD
:1013A0000A4302837047F0B5048C24F010040484CF
:1013B000078B068C4FF6FF7404EA011527F4734778
:1013C00004EA0331394304EA02220A4326F0A00169
:1013D000294341F0100102830184F0BD028B22F009
:1013E0000C020283028B0A43028370472DE9F0410D
:1013F0000D460E884988AA882B8904460EB3042E10
:1014000026D0082E268C4FF6FF7028D026F4805662
:101410002684A78B268C00EA022200EA013127F4F9
:1014200073473A4300EA0330104326F420420A434C
:1014300042F48051A0832184E9882046BDE8F04130
:1014400091E700F062F9E9882046BDE8F041C5E780
:10145000FFF7A9FFE9882046BDE8F04197E726F4A9
:1014600080762684A78B268C00EA012100EA0310EF
:10147000104327F0F307384326F420620A4342F46E
:101480008071A0832184E9882046BDE8F04176E799
:1014900000210180418001228280C180018170474A
:1014A0002DE9F0410C46002649880746012501B97F
:1014B0000226A288012A00D102252088238900283B
:1014C000384610D0FFF76FFFE1883846FFF75FFF1F
:1014D00023892A463146384600F017F9E188384614
:1014E000BDE8F0417AE700F010F9E1883846FFF7EF
:1014F00075FF23892A4631463846FFF754FFE188B5
:101500003846BDE8F04142E7406B7047806B70475A
:10151000C06B7047006C704710B50A884B88CC8848
:101520001A438B8823431A430B891A434B898989B1
:101530001A430A43A0F8442010BD002101804180D5
:101540008180C1800181418181817047002930F80B
:10155000441F02D041F4004101E0C1F30E010180BB
:1015600070470029818802D041F0040101E021F098
:101570000401818070470029818802D041F0010177
:1015800001E021F0010181807047002A828901D0A9
:101590000A4300E08A438281704781827047024695
:1015A0000020128A0A4200D001207047C9430182FC
:1015B000704702460020138A92890B4202EA010218
:1015C00002D0002A00D001207047C9430182704731
:1015D0001143A0F848107047002A828901D00A43BD
:1015E00000E08A43828170470029818802D041F05F
:1015F000080101E021F0080181807047018921F094
:10160000070101817047028922F070020A430281BA
:10161000704700B50346FFF7F6FF188940F0070052
:10162000188100BD70B516460D46602904464FF07E
:10163000010231460AD000F068F829462046FFF73B
:10164000E2FF208940F00700208170BDFFF7ABFE6C
:10165000F3E730B504894FF6FF7505EA032313431A
:10166000E4B20B432343038130BD10B50446FFF7BA
:10167000F0FF208940F07700208110BD10B50446AE
:10168000FFF7E7FF208940F48040208110BD828869
:1016900022F07002828082880A4382807047028929
:1016A00022F00702028102890A43028170470289FF
:1016B00022F08002028102890A430281704770B5DC
:1016C0000589048B068C25F007050D434FF6FC4178
:1016D0000C4040F201110C434FF6FF7101EA031177
:1016E00026F022061143314305810483018470BD35
:1016F0000029818802D041F0800101E021F08001C1
:1017000081807047A0F85010704770B5048C24F0A9
:1017100001040484058B048C4FF6FF7606EA03135C
:10172000134325F0F3052B4324F00A020A4342F049
:1017300001010383018470BDFEE7FEE71A4810B57E
:10174000007848B101F072F930B1184900EB40005F
:1017500001EB4010603810BD154810BD154A10B59A
:1017600011680346082900D3FEE7134800EB011077
:10177000491C1860116000F02FFD012010BD0A49BE
:101780000978002905D000684FF6FF71DFF82CC0FA
:1017900000DF704704490978002903D00068DFF8AA
:1017A00020C000DF704700005900002038090020E9
:1017B000BC0C002040000020D80B0020C1220008F3
:1017C000E92100080948804709480047FEE7FEE78D
:1017D000FEE7FEE7FEE7FEE7FEE7FEE7FEE7FEE7E1
:1017E00004480549054A064B70470000A718000841
:1017F00089010008200D002020130020200F002068
:10180000200F00200CB500205049019000900A687C
:1018100042F480320A604FF4A0430A6802F40032B6
:101820000092019A521C0192009A12B9019A9A42AE
:10183000F3D10A68920334D5012000904348403028
:10184000026842F0805202604148026842F440421D
:1018500002603E48083002680260026842F40042BA
:101860000260026842F4A0520260031F394A1A6003
:101870000A6842F080720A600A689201FCD5364A12
:1018800040F205711160016821F0030101600168F7
:1018900041F0020101600168C1F381010229FAD11E
:1018A0000CBD00900CBD2D4810B5016841F47001CD
:1018B00001602648016841F001010160234A0021CE
:1018C000083211600268264B1A400260031D254A47
:1018D0001A60026822F4802202601C480C30016009
:1018E000FFF790FF1D494FF000608039086010BD80
:1018F00030B5164C083420681B4A10F00C011B4808
:1019000003D0042901D0082901D0026013E00F4957
:10191000091D0B680B6803F03F03B2FBF3F20B6881
:101920000968C3F388135A43C1F30141491C4900B4
:10193000B2FBF1F1016021680C4AC1F30311121DE1
:10194000515C0268CA40026030BD000000380240AD
:101950000070004010544007003C024088ED00E059
:10196000FFFFF6FE103000240024F40044000020A5
:1019700000487047BC0C00207546FFF7F9FFAE46E3
:1019800005006946534620F00700854618B020B58B
:10199000FFF726FFBDE820404FF000064FF000079C
:1019A0004FF000084FF0000B21F00701AC46ACE807
:1019B000C009ACE8C009ACE8C009ACE8C0098D4674
:1019C00070470446AFF300802046FEF71DFC7047C9
:1019D0007047704701491820ABBEFEE726000200A1
:1019E000704700000000000010B5002A06DA22F05F
:1019F0000042D21D22F00703102203E0D21C22F085
:101A000003030C2213B19C188C4201D9012010BD94
:101A1000024401448360C0E90021C91AD0188842F9
:101A200002D810600246F9E70020106010BD0000E7
:101A300008480068C0010BD507480068C00707D0F8
:101A4000054880380068002802DA0449012008703F
:101A500070470000FCED00E0800E00E07C000020FC
:101A60004FF06042D36F002BFCD0036BD367D36F72
:101A7000002BFCD0C07840EA0120A2F87C0070471F
:101A80004FF06041CA6F002AFCD081F87C0070479B
:101A900070B50D46040003D012B92078012801D09A
:101AA000802070BD204600F097FA28B129462046D4
:101AB00000F02CF8002070BD812070BD10B50446E8
:101AC0008089002821D0608904EB800000690860CB
:101AD0006078022805D10021204600F073FC00F058
:101AE00061FC04F10C0000BFD0E85F1F491EC0E894
:101AF000521F002AF8D16089401C80B26081E189C0
:101B0000884201D100206081042010BD10B500F092
:101B100059FCBDE8104000F045BC0000EFF3058122
:101B200009B182207047DFF808C000DF704700006D
:101B30003D2A0008EFF3058008B182207047EFF3DB
:101B40001480C00703D0DFF80CC000DF704700F03E
:101B50007FBF0000512A000888B0EFF3058010B164
:101B6000822008B07047EFF3148010F0030113488F
:101B700006D001291BD0022911D0032919D113E065
:101B800008A981F309880078C0070BD05FF0020034
:101B900080F31488BFF34F8FBFF36F8F09E0007895
:101BA000C00706D10320F3E70078C00701D0FF206B
:101BB000D7E7DFF80CC000DFD3E70000C42C000833
:101BC000C12A00080EB50246EFF30580A0B18020BF
:101BD00002B121B10090DDE9011203B000BD11781E
:101BE0000129F7D101A91046FFF768FF042801D0A9
:101BF0000020EFE71020EDE71046DFF808C000DF17
:101C0000EBE700002D2B0008EFF305820AB100205E
:101C10007047EFF31482064B02F001025B781A431F
:101C200003D0DFF810C000DF704700F09DBF000058
:101C300058000020692B0008DFF80CC000DFDFF837
:101C40000CC000DFFEE70000D92B0008F52B0008D0
:101C5000DFF804C000DF70472D2C0008094C4FF05E
:101C6000FF3529462068FFF7ADFF02460846102AD7
:101C7000F7D1FFF7EDFF0028F3D002460846904762
:101C8000EFE700003C000020074801684FF0E0202B
:101C9000416100218161072101610448016841F02F
:101CA0007F41016040177047C02C000820ED00E024
:101CB000704750E8001F31B10B6840E80032002A3D
:101CC000F7D108467047BFF32F8FFAE710B568B118
:101CD00061B10B3121F00302016844680B1A1B1B30
:101CE000934205D2084609680029F5D1002010BDAD
:101CF0003CB121180368C1E90032016001F108001C
:101D000010BD4260083010BD70B50D46002812D0DD
:101D10004FF6FF71084C884204D2226801461046F3
:101D200000F07CFB20684570044800F0D7F8BDE85F
:101D3000704000F045BC70BD600000208C0C00209D
:101D40000F4810B50D4942680E480B680068934271
:101D500004D00A60CB88421E1A448A808A8880B2E6
:101D600082420AD100200860054800F0B7F8014619
:101D7000BDE81040024800F075BB10BD74000020A3
:101D80008C0C00207000002070B5194DE868002808
:101D90002CD0A88A401EA882002621E0A06838B175
:101DA00061684160606810B1A16881606660A6608A
:101DB0000F482146183800F055FBA08AA8826078A9
:101DC000042804D10B49E08A09880844A082012034
:101DD0006070E068E860E06808B10561E66026616F
:101DE000A88A002802D1EC68002CD7D170BD000071
:101DF000A40C00207000002070B504000FD00D4D21
:101E0000A17801262868827891420CD900F046FB1F
:101E1000286846702046BDE8704000F0D1BB0648F7
:101E200000F05CF8F7E766702146BDE870400248B4
:101E300000F018BB600000208C0C00200321FFF78D
:101E400063BF000010B50446008B0843208362780E
:101E5000618B062A18D0052A19D1084217D001EA49
:101E60000002628388432083204600F051FB01205A
:101E70006070628B0821204600F042FB2146BDE8DD
:101E80001040034800F0EEBA31EA0002EAD010BD7B
:101E90008C0C0020814202D342688A4201D8012082
:101EA000704750E8002F0A6040E80012002AF8D17D
:101EB0000020704768B161B10839002202E0024693
:101EC000006830B18842FAD12AB100681060002061
:101ED00070470120704700214160F8E701464068E3
:101EE00042684A600B780022022B05D0012B03D0F8
:101EF000032B01D04260704743680BB19960426088
:101F000082607047810700D00020704770B504469A
:101F100000201546207001226270A17084F8241000
:101F20006060A060E06020612062A082E082208387
:101F3000608384F82500E08C18B90548FFF7B9FEE6
:101F4000E06229462046BDE8704000F01DB8000060
:101F50002802002008B1082901D20120704701445D
:101F6000091F002201600A604260104670470000AD
:101F700003480021016003490988C18070470000BF
:101F800074000020BC2C000810B5C28C920803D14C
:101F90000F4A1288C2F38D02C36A03EB8202530711
:101FA00000D5121F403A4FF08073C2E90E13002390
:101FB0004FEA030442F823405B1C0E2BFAD3C3699B
:101FC000136282620163C06A0249016010BD0000B1
:101FD000B82C0008A52E5AE2C1898089081A7047DA
:101FE00001220270002242708270426002814281AE
:101FF00010398281C1F38F01C18170472DE9F04111
:10200000044640680E464FF0000804F10C05E0B3AA
:102010006078012701283DD0022813D003285BD126
:102020000846FFF746FE050056D02046FFF756FF4C
:102030000446294600F05EFA6770204600F068FA10
:10204000214620E02046FFF749FF0646002100F028
:1020500051FA2189F06904EB81010861D5E85F0F2D
:10206000401CC5E8510F0029F8D12089401C80B2DE
:102070002081E189884201D1A4F808807770304638
:1020800000F046FA3146184800E00CE0BDE8F041A7
:1020900000F0E8B92046FFF721FF04463246102140
:1020A00000F02EFAC8E7A089E189884216D220897B
:1020B00004EB8000C0F81060D5E85F0F401CC5E855
:1020C000510F0029F8D12089401C80B22081E1897C
:1020D000884201D1A4F80880BDE8F081BDE8F04154
:1020E0000320FFF72ABB00008C0C002070B50446CB
:1020F000808915460026B8B3608904EB800000692A
:1021000008606089401C80B26081E189884200D10A
:102110006681606810B1607802280AD014F10C045E
:10212000D4E85F0F401EC4E8510F0029F8D1002009
:1021300070BD2046FFF7D2FE0546002100F0DAF917
:102140002189E86904EB810108612089401C80B283
:102150002081E189884200D12681284600F0D8F903
:102160002846FFF749FEE2E7FFE73DB10A4862680B
:1021700001682AB1204600F075F908E0012070BD21
:10218000616001684E600068846001206070082111
:102190002846FFF7B9FDF1E760000020411C13D08D
:1021A0000B4A4FF6FE7190420CD800EB4002C2EB96
:1021B000C0120848036803EBC202521EB2FBF3F0E0
:1021C000884200D9084670474FF6FF7070470000FC
:1021D00000093D00D02C000803210170002141803E
:1021E00041608160C16070472DE9F041044640883C
:1021F00020B1314DA1682A68914202D0FF20BDE88C
:10220000F081401E0004000C608053D12968086AE8
:10221000A04209D1E068086208E0C268A24202D187
:10222000E268C26002E010460028F6D191F824006E
:102230000A6A06E053681BB19B78834200D91846AE
:10224000D268002AF6D18870DFF8708061680126B4
:1022500011B32046FFF742FE0746002100F04AF97D
:10226000384600F055F96680A760386AE0603C6245
:102270002968D8F804008A788078824201D33846E9
:1022800016E00E4800F0EEF839460C4800F0EAF887
:10229000286846707E700AE0D8F804108A782968A9
:1022A000824207D9054800F0DDF828684670002012
:1022B000FFF7A2FD0020A2E7600000208C0C0020A8
:1022C00070B5184D0E4604464188286839B1A1689A
:1022D000814209D16088401C6080002070BDA060F0
:1022E000016AE1600462F5E776B18A78807882421B
:1022F00003D28870A06800F0DBF8606830B1204637
:10230000296800F0AFF808E0012070BD286860601F
:102310002968002048602868846009213046FFF75A
:10232000F3FCF1E76000002070B51B480121026852
:102330005170006800F0B2F8184D6C7817E000BFDB
:1023400005EBC40148680278E2B1012A1FD000F011
:102350000BF9E878641C844200D100240F48801CEB
:10236000D0E84F1F491EC0E8421F002AF8D1A878C4
:102370000028E5D16C700A48FFF7B0FDBDE8704059
:1023800000F01EB9098989B2FFF75CFDE1E78968B1
:10239000FFF734FEDDE70000600000209808002011
:1023A0008C0C00200548017811B101214170704763
:1023B00003494FF08050086070470000680000201B
:1023C00004ED00E0F0B4144A941CD5784FEA0206FC
:1023D000D4E84F3FAB4202D1BFF32F8F0EE05B1C1E
:1023E000C4E8473F002FF3D1D6E84F3F5C1CAC4216
:1023F00000D10024C6E8474F002FF5D1D4789C4285
:1024000005D902EBC302C2E90101F0BC7047F0BC80
:102410000220FFF792B9000098080020104A10B57A
:10242000D368ABB113469B8A03E08CB12246A48AE1
:102430002344D4688B42F8D3C460D0600261C4687E
:1024400004B12061591A8182908A401A908210BD8D
:102450000024C460D060C91A02619182848210BDD8
:10246000A40C002030B502780023022A03D0012AF0
:1024700001D0032A00D101238C7800E01046426885
:1024800012B19578A542F9D24A6041601BB102B100
:102490009160886030BD0020FBE7000003494A6876
:1024A0004260002282604860704700008C0C00206F
:1024B00010B5836804462BB9607801280ED1084B0B
:1024C00003E09B6818780028FBD0204600F034F821
:1024D0002146BDE810401846FFF7C4BF10BD0000FC
:1024E0008C0C002090F82510806A09B1603070478C
:1024F0002030704710B50C46FFF7F4FF046010BDA4
:1025000070B515460C46FFF7EDFFC0E9004570BDFC
:1025100010B5016900290ED0C268CA60C3680022E4
:102520003BB18B8A848A23448B82C3681961C26061
:1025300000E08A82026110BD816839B142684A6058
:102540004168002901D0806888607047054906E02D
:102550004A68824202D140684860704711460029AB
:10256000F6D170478C0C002010B5416881B1FFF79F
:10257000B5FC0446FFF7CCFF012060700146204601
:10258000FFF7B8FF2146BDE810400348FFF76ABFD8
:102590004188491C418010BD8C0C00200648006811
:1025A000D0E90A10814203D300680449884202D06E
:1025B0000120FFF7C2B8704760000020A52E5AE244
:1025C0000749022248604270064A1278002A05D064
:1025D00006C98A4202D0C078FFF752BA704700009D
:1025E000600000207C00002070B5FFF721FA002079
:1025F0000446204A204902E042F82040401C0B8853
:102600009842F9D31D48342201881D48FFF7ECF9A0
:102610001C48008880B240F000421B4801681B48FB
:10262000FFF7E2F91A48082201881A480068FFF704
:10263000DBF9194DFF20194AE870EC840021284687
:10264000FFF764FC164804210170446015480170CE
:10265000C4600461848214481549056002206870D2
:102660001248047044700978C170BDE87040FFF7EB
:102670007FBC00001C090020B42C0008D82C0008E6
:10268000AC000020B82C0008DC2C00082802002038
:10269000002D000824000020580C002039170008E5
:1026A0008C0C0020A40C0020600000209808002062
:1026B000E42C00081A4810B5016841F47F0101605C
:1026C00000684FF07F4101EA00201549C0431439EA
:1026D000B0FA80F00968C0F10800C1F3022181421C
:1026E00000DB481C0E49091F0B686FF080728240A6
:1026F00063F317020A60FFF7C7FA0A490028086067
:102700000DDB094AFF21815400F01F020121914095
:1027100040114FF0E02202EB8000C0F8001110BD24
:1027200020ED00E06C00002000E400E00C4810B553
:102730000268012151700068FFF7B0FEFFF700FB4F
:1027400008480168491C0160FFF71EFB00F07AFA97
:102750000548FFF7C3FBBDE81040FFF731BF00009D
:1027600060000020700000208C0C0020002805D0A4
:10277000810702D10178002900D0002070470000B5
:1027800030B50C4C0023626805E015898D4204D8F1
:1027900013461268491B002AF7D189B202600181F1
:1027A00012B11589691A11810BB1186030BD6060D2
:1027B00030BD0000580000202DE9F0411E461746AC
:1027C00080460C4611F0FF0F00D14C1C1748FFF754
:1027D00070FA050028D0C4F30F20EF62E884E1B25C
:1027E00042462846EE61FFF791FB0124104811494B
:1027F00006E000BF00EB840252F8042C22B1641CF6
:102800000A889442F6D9002400EB840040F8045C66
:102810000948EC70007818B101212846FFF720F92B
:102820002846FFF7E9FA2046BDE8F081AC00002019
:102830001C090020B42C00087C0000202DE9F05F6A
:10284000564DDFF850A1DFF8509129684FF000088D
:10285000012618B1CA78AB46824241D1474681F879
:102860000180FDF7ECFC29688862FFF797FE286875
:10287000B046046A1AE06068B8B12046FFF72EFB44
:1028800006460021FFF736FE3046FFF741FE86F888
:10289000018031464248FFF7E5FDA4F80280A660BA
:1028A000316AE1603462E46800E0E468002CE2D15F
:1028B0002868C27809EB820141F8047CC16A394872
:1028C000FFF7E8FA2868C7629AF8001011B10021F2
:1028D000FFF7C6F834482968FFF7DCFA2F6053E0A9
:1028E0003249098888420DD809EB800757F8045C03
:1028F00045B12846FFF720FE2846FFF709FEB146FE
:102900002C6A1DE0FF20BDE8F09F6068B8B120464A
:10291000FFF7E4FA06460021FFF7ECFD3046FFF72B
:10292000F7FD86F8019031461D48FFF79BFDA4F89E
:102930000290A660316AE1603462E46800E0E46815
:10294000002CE2D147F8048C44461648E96AFFF7A8
:10295000A1FAEC629AF8000018B100212846FFF7AE
:102960007FF829461048FFF795FA0D48DBF800106C
:1029700040688B7882789A4209D981F8019008489A
:10298000DBF80010FFF76EFD0020FFF735FA00209E
:10299000B9E700007C0000201C0900206000002036
:1029A0008C0C002028020020AC000020B42C000871
:1029B00070B51A4D80B11A4A128890421FD8194A30
:1029C00002EB800050F8044CCCB1A17084F82410C4
:1029D0002868A04205D014E028688170286880F833
:1029E0002410114840688078884215D90E4829681B
:1029F000FFF738FD29680120487000200AE0FF2019
:102A000070BD2046FFF754FD6078012804D10648C8
:102A1000FFF764FAFFF7F0F9002070BD60000020B6
:102A2000B42C00081C0900208C0C0020024800680F
:102A3000002800D0C07870476000002010B5002842
:102A400005D0FFF7ABFB80B2FFF7F8F9402010BDCF
:102A500010B5134C207860B91248400705D11248D0
:102A600001681048FFF776FA08B1852010BDFFF71E
:102A7000BBFD0E49FF2009688870207858B90021F5
:102A80000B4800F041F80B49086000210A4800F0AB
:102A90006BF80A490860012020700020607010BDAA
:102AA00058000020E8060020E02C0008600000200C
:102AB000F82C00083C000020E82C0008380000201A
:102AC00070B50F4D687808B1002070BD0D4C2068BE
:102AD00090F824100020FFF76BFF2068C178FF29D1
:102AE00003D1816A203181F30988616811B960607E
:102AF00000202060FFF7DEFD01206870E4E70000A1
:102B0000580000206000002010B5040005D02168A6
:102B100019B1606808B102780AB1002010BD8900BF
:102B2000103189B2FFF75CFA606810BD3EB5040051
:102B30000D464FF0800012D0217801290FD1284690
:102B4000FFF72CFB82B201A92046FFF7CFFA01283C
:102B500001D0102003E00DB1402000E00020DDE9AD
:102B6000011203B030BD000070B50E4604002BD03A
:102B7000206848B3B4F9040010F1030F24DB0328E4
:102B800022DCE16829B11148FFF7A0F805001BD04D
:102B900000E00025B4F90400E168001D40EA0121CD
:102BA00033462A462068FFF707FE40B1084901EB8B
:102BB0008000084950F8040C826A516370BD1DB151
:102BC00029460248FFF776F9002070BDE80600208C
:102BD0001C090020391C000810B5FFF727FF00284A
:102BE00004D0034901EB800050F8040C10BD000034
:102BF0001C09002010B5FFF7B9FD18B1C18C19B13F
:102C0000C46A02E0802010BD0024C078FFF716FEE1
:102C1000FF2806D01CB121460348FFF74BF90020DE
:102C200010BD812010BD0000E806002010B5FFF7A0
:102C300069F920B101690A68C168104610BD002019
:102C4000014610BD2DE9F041114E7468002C18D0DA
:102C50002089104F401E20814FF001080EE02546CC
:102C600024687460002229463868FEF711FF6879ED
:102C7000012808D085F80480002C02D02089002883
:102C8000EDD0BDE8F08169892846FFF779FDF3E7CB
:102C9000580000203C0000204FF04070E1EE100A88
:102CA00070470000B90300080000000001000000A8
:102CB0000000000007000000C8000201050001003C
:102CC0003F90020001000000020001004B000400E0
:102CD000E80300000000000078010000C0040000CC
:102CE000B0010000100000005D1C000802000000A0
:102CF00001000000C8000000040000008C0000205B
:102D000000000000242D00080000002080000000CA
:102D1000C4010008A42D000880000020A0120000BB
:102D2000E0010008000000000000000000000000BA
:102D30000100000000000000000102030401020382
:102D4000040607080900000000000000CB0300088B
:102D50000000000001000000C800000000000000AA
:102D60000000000000000000007A030A00000000DC
:102D7000000000000102030406070809000000002B
:102D80000000000000000000000000000000000043
:102D90000000000000000000000000000000000033
:042DA000000000002F
:040000050800018965
:00000001FF
